{"abi":[{"type":"constructor","inputs":[{"name":"_enbToken","type":"address","internalType":"address"},{"name":"_upgradeRecipient","type":"address","internalType":"address"},{"name":"_trustedRelayer","type":"address","internalType":"address"}],"stateMutability":"nonpayable"},{"type":"function","name":"DAILY_CLAIM_COOLDOWN","inputs":[],"outputs":[{"name":"","type":"uint256","internalType":"uint256"}],"stateMutability":"view"},{"type":"function","name":"RESERVE_FUND_PERCENTAGE","inputs":[],"outputs":[{"name":"","type":"uint256","internalType":"uint256"}],"stateMutability":"view"},{"type":"function","name":"acceptOwnership","inputs":[],"outputs":[],"stateMutability":"nonpayable"},{"type":"function","name":"activateEmergencyMode","inputs":[],"outputs":[],"stateMutability":"nonpayable"},{"type":"function","name":"createAccount","inputs":[],"outputs":[],"stateMutability":"nonpayable"},{"type":"function","name":"dailyClaim","inputs":[{"name":"user","type":"address","internalType":"address"}],"outputs":[],"stateMutability":"nonpayable"},{"type":"function","name":"deactivateEmergencyMode","inputs":[],"outputs":[],"stateMutability":"nonpayable"},{"type":"function","name":"emergencyMode","inputs":[],"outputs":[{"name":"","type":"bool","internalType":"bool"}],"stateMutability":"view"},{"type":"function","name":"enbToken","inputs":[],"outputs":[{"name":"","type":"address","internalType":"contract IERC20"}],"stateMutability":"view"},{"type":"function","name":"levelConfigs","inputs":[{"name":"","type":"uint8","internalType":"enum EnbMiniApp.MembershipLevel"}],"outputs":[{"name":"dailyClaimYield","type":"uint96","internalType":"uint96"},{"name":"upgradeRequirement","type":"uint160","internalType":"uint160"}],"stateMutability":"view"},{"type":"function","name":"owner","inputs":[],"outputs":[{"name":"","type":"address","internalType":"address"}],"stateMutability":"view"},{"type":"function","name":"paused","inputs":[],"outputs":[{"name":"","type":"bool","internalType":"bool"}],"stateMutability":"view"},{"type":"function","name":"pendingOwner","inputs":[],"outputs":[{"name":"","type":"address","internalType":"address"}],"stateMutability":"view"},{"type":"function","name":"recoverERC20","inputs":[{"name":"token","type":"address","internalType":"address"},{"name":"amount","type":"uint256","internalType":"uint256"}],"outputs":[],"stateMutability":"nonpayable"},{"type":"function","name":"renounceOwnership","inputs":[],"outputs":[],"stateMutability":"nonpayable"},{"type":"function","name":"transferOwnership","inputs":[{"name":"newOwner","type":"address","internalType":"address"}],"outputs":[],"stateMutability":"nonpayable"},{"type":"function","name":"trustedRelayer","inputs":[],"outputs":[{"name":"","type":"address","internalType":"address"}],"stateMutability":"view"},{"type":"function","name":"updateRelayer","inputs":[{"name":"newRelayer","type":"address","internalType":"address"}],"outputs":[],"stateMutability":"nonpayable"},{"type":"function","name":"updateUpgradeRecipient","inputs":[{"name":"newRecipient","type":"address","internalType":"address"}],"outputs":[],"stateMutability":"nonpayable"},{"type":"function","name":"upgradeMembership","inputs":[{"name":"user","type":"address","internalType":"address"},{"name":"targetLevel","type":"uint8","internalType":"enum EnbMiniApp.MembershipLevel"}],"outputs":[],"stateMutability":"nonpayable"},{"type":"function","name":"upgradeTokenRecipient","inputs":[],"outputs":[{"name":"","type":"address","internalType":"address"}],"stateMutability":"view"},{"type":"function","name":"userAccounts","inputs":[{"name":"","type":"address","internalType":"address"}],"outputs":[{"name":"lastDailyClaimTime","type":"uint40","internalType":"uint40"},{"name":"accountCreatedAt","type":"uint40","internalType":"uint40"},{"name":"totalDailyClaims","type":"uint32","internalType":"uint32"},{"name":"totalYieldClaimed","type":"uint96","internalType":"uint96"},{"name":"membershipLevel","type":"uint8","internalType":"enum EnbMiniApp.MembershipLevel"},{"name":"exists","type":"bool","internalType":"bool"}],"stateMutability":"view"},{"type":"function","name":"withdrawTokens","inputs":[{"name":"to","type":"address","internalType":"address"},{"name":"amount","type":"uint256","internalType":"uint256"}],"outputs":[],"stateMutability":"nonpayable"},{"type":"event","name":"AccountCreated","inputs":[{"name":"user","type":"address","indexed":true,"internalType":"address"},{"name":"timestamp","type":"uint256","indexed":false,"internalType":"uint256"}],"anonymous":false},{"type":"event","name":"DailyClaimCompleted","inputs":[{"name":"user","type":"address","indexed":true,"internalType":"address"},{"name":"amount","type":"uint256","indexed":false,"internalType":"uint256"},{"name":"timestamp","type":"uint256","indexed":false,"internalType":"uint256"}],"anonymous":false},{"type":"event","name":"ERC20Recovered","inputs":[{"name":"token","type":"address","indexed":false,"internalType":"address"},{"name":"amount","type":"uint256","indexed":false,"internalType":"uint256"}],"anonymous":false},{"type":"event","name":"EmergencyModeActivated","inputs":[{"name":"by","type":"address","indexed":false,"internalType":"address"}],"anonymous":false},{"type":"event","name":"EmergencyModeDeactivated","inputs":[{"name":"by","type":"address","indexed":false,"internalType":"address"}],"anonymous":false},{"type":"event","name":"MembershipUpgraded","inputs":[{"name":"user","type":"address","indexed":true,"internalType":"address"},{"name":"from","type":"uint8","indexed":false,"internalType":"enum EnbMiniApp.MembershipLevel"},{"name":"to","type":"uint8","indexed":false,"internalType":"enum EnbMiniApp.MembershipLevel"},{"name":"amount","type":"uint256","indexed":false,"internalType":"uint256"}],"anonymous":false},{"type":"event","name":"OwnershipTransferStarted","inputs":[{"name":"previousOwner","type":"address","indexed":true,"internalType":"address"},{"name":"newOwner","type":"address","indexed":true,"internalType":"address"}],"anonymous":false},{"type":"event","name":"OwnershipTransferred","inputs":[{"name":"previousOwner","type":"address","indexed":true,"internalType":"address"},{"name":"newOwner","type":"address","indexed":true,"internalType":"address"}],"anonymous":false},{"type":"event","name":"Paused","inputs":[{"name":"account","type":"address","indexed":false,"internalType":"address"}],"anonymous":false},{"type":"event","name":"RelayerUpdated","inputs":[{"name":"newRelayer","type":"address","indexed":false,"internalType":"address"}],"anonymous":false},{"type":"event","name":"TokensWithdrawn","inputs":[{"name":"to","type":"address","indexed":false,"internalType":"address"},{"name":"amount","type":"uint256","indexed":false,"internalType":"uint256"}],"anonymous":false},{"type":"event","name":"Unpaused","inputs":[{"name":"account","type":"address","indexed":false,"internalType":"address"}],"anonymous":false},{"type":"event","name":"UpgradeTokenRecipientUpdated","inputs":[{"name":"newRecipient","type":"address","indexed":false,"internalType":"address"}],"anonymous":false},{"type":"event","name":"YieldDistributed","inputs":[{"name":"user","type":"address","indexed":true,"internalType":"address"},{"name":"amount","type":"uint256","indexed":false,"internalType":"uint256"},{"name":"reason","type":"string","indexed":false,"internalType":"string"}],"anonymous":false},{"type":"error","name":"AccountAlreadyExists","inputs":[]},{"type":"error","name":"AccountDoesNotExist","inputs":[]},{"type":"error","name":"AlreadyAtMaxLevel","inputs":[]},{"type":"error","name":"CannotSkipLevels","inputs":[]},{"type":"error","name":"DailyClaimOnCooldown","inputs":[]},{"type":"error","name":"EmergencyModeActive","inputs":[]},{"type":"error","name":"EnforcedPause","inputs":[]},{"type":"error","name":"ExpectedPause","inputs":[]},{"type":"error","name":"InsufficientAllowance","inputs":[]},{"type":"error","name":"InsufficientContractBalance","inputs":[]},{"type":"error","name":"InsufficientReserveFunds","inputs":[]},{"type":"error","name":"InsufficientTokensForUpgrade","inputs":[]},{"type":"error","name":"InvalidAmount","inputs":[]},{"type":"error","name":"InvalidMembershipLevel","inputs":[]},{"type":"error","name":"InvalidRecipient","inputs":[]},{"type":"error","name":"NotInEmergencyMode","inputs":[]},{"type":"error","name":"OnlyRelayerAllowed","inputs":[]},{"type":"error","name":"OwnableInvalidOwner","inputs":[{"name":"owner","type":"address","internalType":"address"}]},{"type":"error","name":"OwnableUnauthorizedAccount","inputs":[{"name":"account","type":"address","internalType":"address"}]},{"type":"error","name":"ReentrancyGuardReentrantCall","inputs":[]},{"type":"error","name":"SafeERC20FailedOperation","inputs":[{"name":"token","type":"address","internalType":"address"}]}],"bytecode":{"object":"0x60a06040523480156200001157600080fd5b5060405162001b2e38038062001b2e833981016040819052620000349162000338565b600160005533806200006157604051631e4fbdf760e01b8152600060048201526024015b60405180910390fd5b6200006c81620002a3565b506001600160a01b038316620000b55760405162461bcd60e51b815260206004820152600d60248201526c24b73b30b634b2103a37b5b2b760991b604482015260640162000058565b6001600160a01b038216620001015760405162461bcd60e51b8152602060048201526011602482015270125b9d985b1a59081c9958da5c1a595b9d607a1b604482015260640162000058565b6001600160a01b0381166200014b5760405162461bcd60e51b815260206004820152600f60248201526e24b73b30b634b2103932b630bcb2b960891b604482015260640162000058565b6001600160a01b03928316608052600480546001600160a01b031990811693851693909317905560038054909216908316179055604080518082018252678ac7230489e8000081526000602080830182815282805260068083529351905186166c010000000000000000000000009081026001600160601b03928316177f54cdd369e4e8a8515e52ca72ec816c2101831ad1f18bf44102ed171459c9b4f8558551808701875267d02ab486cedc0000815269065a4da25d3016c00000818501908152600186528685529051905188168202908316177f3e5fec24aa4dc4e5aee2e025e51e1392c72a2500577559fae9665c6d52bd6a315585518087019096526801158e460913d000008652690cb49b44ba602d80000086840190815260029094529390915292519051909316029116177f8819ef417987f8ae7a81f42cdfb18815282fe989326fbff903d13cf0e03ace295562000382565b600280546001600160a01b0319169055620002be81620002c1565b50565b600180546001600160a01b03838116610100818102610100600160a81b031985161790945560405193909204169182907f8be0079c531659141344cd1fd0a4f28419497f9722a3daafe3b4186f6b6457e090600090a35050565b80516001600160a01b03811681146200033357600080fd5b919050565b6000806000606084860312156200034e57600080fd5b62000359846200031b565b925062000369602085016200031b565b915062000379604085016200031b565b90509250925092565b608051611751620003dd60003960008181610343015281816103ef015281816104920152818161055d015281816107d3015281816108840152818161094a01528181610b2f01528181610c660152610de401526117516000f3fe608060405234801561001057600080fd5b506004361061014d5760003560e01c80638da5cb5b116100c3578063c0302c9e1161007c578063c0302c9e14610365578063c165554c1461036d578063d009601014610380578063e30c397814610388578063f2fde38b14610399578063f583f5b1146103ac57600080fd5b80638da5cb5b146102ed5780638f83ab131461030357806399b20eaf146103165780639dca362f1461031e578063a1eda9bf14610326578063a7de285f1461033e57600080fd5b80635c975abb116101155780635c975abb146102815780636b7e627c1461028c578063715018a61461029f57806379ba5097146102a75780638596c226146102af5780638980f11f146102da57600080fd5b806306b091f9146101525780630905f5601461016757806315db5d7c146101905780632935a0cc146101a35780635251d91c14610205575b600080fd5b6101656101603660046114cf565b6103bf565b005b60045461017b90600160a01b900460ff1681565b60405190151581526020015b60405180910390f35b61016561019e366004611508565b6105d7565b6101de6101b136600461153b565b6006602052600090815260409020546001600160601b03811690600160601b90046001600160a01b031682565b604080516001600160601b0390931683526001600160a01b03909116602083015201610187565b61026f61021336600461155d565b60056020526000908152604090205464ffffffffff808216916501000000000081049091169063ffffffff600160501b820416906001600160601b03600160701b8204169060ff600160d01b8204811691600160d81b90041686565b604051610187969594939291906115b0565b60015460ff1661017b565b61016561029a36600461155d565b6109cc565b610165610d56565b610165610d6a565b6003546102c2906001600160a01b031681565b6040516001600160a01b039091168152602001610187565b6101656102e83660046114cf565b610db0565b60015461010090046001600160a01b03166102c2565b61016561031136600461155d565b610ecf565b610165610f53565b610165610f9e565b6103306201518081565b604051908152602001610187565b6102c27f000000000000000000000000000000000000000000000000000000000000000081565b610330600a81565b6004546102c2906001600160a01b031681565b610165611172565b6002546001600160a01b03166102c2565b6101656103a736600461155d565b6111bd565b6101656103ba36600461155d565b611234565b6103c76112b1565b6040516370a0823160e01b81523060048201528190600090606490600a906001600160a01b037f000000000000000000000000000000000000000000000000000000000000000016906370a0823190602401602060405180830381865afa158015610436573d6000803e3d6000fd5b505050506040513d601f19601f8201168201806040525081019061045a9190611601565b6104649190611630565b61046e919061164d565b6040516370a0823160e01b8152306004820152909150819083906001600160a01b037f000000000000000000000000000000000000000000000000000000000000000016906370a0823190602401602060405180830381865afa1580156104d9573d6000803e3d6000fd5b505050506040513d601f19601f820116820180604052508101906104fd9190611601565b610507919061166f565b10156105265760405163a18c9c5b60e01b815260040160405180910390fd5b61052e6112e4565b82806000036105505760405163162908e360e11b815260040160405180910390fd5b6105846001600160a01b037f000000000000000000000000000000000000000000000000000000000000000016868661130e565b604080516001600160a01b0387168152602081018690527f6352c5382c4a4578e712449ca65e83cdb392d045dfcf1cad9615189db2da244b910160405180910390a1506105d16001600055565b50505050565b6003546001600160a01b03163314610602576040516381316de160e01b815260040160405180910390fd5b61060a6112e4565b610612611372565b600454600160a01b900460ff161561063d576040516319e1bef560e01b815260040160405180910390fd5b6001600160a01b0382166000908152600560205260409020548290600160d81b900460ff1661067f5760405163e76ea87f60e01b815260040160405180910390fd5b6001600160a01b03831660009081526005602052604090208054600160d01b900460ff168060028111156106b5576106b5611578565b8460028111156106c7576106c7611578565b116106e5576040516361bfa10560e11b815260040160405180910390fd5b8060028111156106f7576106f7611578565b610702906001611682565b60ff1684600281111561071757610717611578565b60ff161115610739576040516320f872a960e21b815260040160405180910390fd5b600281600281111561074d5761074d611578565b0361076b5760405163151ffe7360e21b815260040160405180910390fd5b60006006600086600281111561078357610783611578565b600281111561079457610794611578565b8152602081019190915260409081016000205490516370a0823160e01b81526001600160a01b038881166004830152600160601b9092048216925082917f000000000000000000000000000000000000000000000000000000000000000016906370a0823190602401602060405180830381865afa15801561081a573d6000803e3d6000fd5b505050506040513d601f19601f8201168201806040525081019061083e9190611601565b101561085d5760405163e406a83b60e01b815260040160405180910390fd5b604051636eb1769f60e11b81526001600160a01b03878116600483015230602483015282917f00000000000000000000000000000000000000000000000000000000000000009091169063dd62ed3e90604401602060405180830381865afa1580156108cd573d6000803e3d6000fd5b505050506040513d601f19601f820116820180604052508101906108f19190611601565b1015610910576040516313be252b60e01b815260040160405180910390fd5b82548590849060ff60d01b1916600160d01b83600281111561093457610934611578565b0217905550600454610975906001600160a01b037f000000000000000000000000000000000000000000000000000000000000000081169189911684611396565b856001600160a01b03167f0b6c148bf2bc074153def533371698ad443226896a1c3c7f4670d533d531bd3a8387846040516109b29392919061169b565b60405180910390a2505050506109c86001600055565b5050565b6003546001600160a01b031633146109f7576040516381316de160e01b815260040160405180910390fd5b6109ff6112e4565b610a07611372565b600454600160a01b900460ff1615610a32576040516319e1bef560e01b815260040160405180910390fd5b6001600160a01b0381166000908152600560205260409020548190600160d81b900460ff16610a745760405163e76ea87f60e01b815260040160405180910390fd5b6001600160a01b03821660009081526005602052604090208054610aa390620151809064ffffffffff166116c4565b421015610ac35760405163078e6c2360e51b815260040160405180910390fd5b80546000906006908290600160d01b900460ff166002811115610ae857610ae8611578565b6002811115610af957610af9611578565b8152602081019190915260409081016000205490516370a0823160e01b81523060048201526001600160601b03909116915081907f00000000000000000000000000000000000000000000000000000000000000006001600160a01b0316906370a0823190602401602060405180830381865afa158015610b7e573d6000803e3d6000fd5b505050506040513d601f19601f82011682018060405250810190610ba29190611601565b1015610bc15760405163786e0a9960e01b815260040160405180910390fd5b815464ffffffffff19164264ffffffffff16178083556001908390600a90610bf7908490600160501b900463ffffffff166116d7565b92506101000a81548163ffffffff021916908363ffffffff1602179055508082600001600e8282829054906101000a90046001600160601b0316610c3b91906116fb565b92506101000a8154816001600160601b0302191690836001600160601b03160217905550610c9d84827f00000000000000000000000000000000000000000000000000000000000000006001600160a01b031661130e9092919063ffffffff16565b604080518281524260208201526001600160a01b038616917fa1e070dab4ebc99a196c50fb04b16eb9368c024988eb348794a7bb95f67cad5c910160405180910390a2836001600160a01b03167f8b2feece5e32afab29f2d2c2605f166d5aa3a24c5b16ba578a2ea2c4e1128c8a82604051610d3e918152604060208201819052600b908201526a6461696c795f636c61696d60a81b606082015260800190565b60405180910390a2505050610d536001600055565b50565b610d5e6112b1565b610d6860006113cf565b565b60025433906001600160a01b03168114610da75760405163118cdaa760e01b81526001600160a01b03821660048201526024015b60405180910390fd5b610d53816113cf565b610db86112b1565b600454600160a01b900460ff16610de25760405163197b261160e21b815260040160405180910390fd5b7f00000000000000000000000000000000000000000000000000000000000000006001600160a01b0316826001600160a01b031603610e635760405162461bcd60e51b815260206004820152601c60248201527f43616e6e6f74207265636f766572207072696d61727920746f6b656e000000006044820152606401610d9e565b600154610e899061010090046001600160a01b03166001600160a01b038416908361130e565b604080516001600160a01b0384168152602081018390527f505b28e6941631badc363841ecbf8e1214b9379c643936458e87be718e157999910160405180910390a15050565b610ed76112b1565b6001600160a01b038116610efe57604051634e46966960e11b815260040160405180910390fd5b600380546001600160a01b0319166001600160a01b0383169081179091556040519081527f09bf35b7806e61e7baf86e6547c4221f69d130ccc0a19215d064685a89464a70906020015b60405180910390a150565b610f5b6112b1565b6004805460ff60a01b191690556040513381527fbd95437b04432c9bbcf6d10c00e0e1cdc482151ffe5da10870858d456ee9fc23906020015b60405180910390a1565b610fa66112e4565b610fae611372565b600454600160a01b900460ff1615610fd9576040516319e1bef560e01b815260040160405180910390fd5b33600090815260056020526040902054600160d81b900460ff1615611011576040516369783db760e01b815260040160405180910390fd5b6040805160c08101825260008082524264ffffffffff16602083015291810182905260608101829052906080820190815260016020918201523360009081526005825260409081902083518154938501519285015160608601516001600160601b0316600160701b026bffffffffffffffffffffffff60701b1963ffffffff909216600160501b02919091166fffffffffffffffffffffffffffffffff60501b1964ffffffffff958616650100000000000269ffffffffffffffffffff19909716959093169490941794909417169190911791909117808255608083015190829060ff60d01b1916600160d01b83600281111561111057611110611578565b021790555060a091909101518154901515600160d81b0260ff60d81b1990911617905560405142815233907f7325fb14450d3e5eb288c620b4ff1d6b43a41b33b4a4f143ae88cd4c12f99ea39060200160405180910390a2610d686001600055565b61117a6112b1565b6004805460ff60a01b1916600160a01b1790556040513381527f43f3e8d1092da4d3201e4d117b99bf80e75127516bc6523bd8cdb4464a923cde90602001610f94565b6111c56112b1565b600280546001600160a01b0383166001600160a01b031990911681179091556111fc6001546001600160a01b036101009091041690565b6001600160a01b03167f38d16b8cac22d99fc7c124b9cd0de2d3fa1faef420bfe791d8c362d765e2270060405160405180910390a350565b61123c6112b1565b6001600160a01b03811661126357604051634e46966960e11b815260040160405180910390fd5b600480546001600160a01b0319166001600160a01b0383169081179091556040519081527fb599374e673e46bf2160f511de30ed79e1533613e50b5f7d5197c406f73a4a7190602001610f48565b6001546001600160a01b03610100909104163314610d685760405163118cdaa760e01b8152336004820152602401610d9e565b60026000540361130757604051633ee5aeb560e01b815260040160405180910390fd5b6002600055565b6040516001600160a01b0383811660248301526044820183905261136d91859182169063a9059cbb906064015b604051602081830303815290604052915060e01b6020820180516001600160e01b0383818316178352505050506113e8565b505050565b60015460ff1615610d685760405163d93c066560e01b815260040160405180910390fd5b6040516001600160a01b0384811660248301528381166044830152606482018390526105d19186918216906323b872dd9060840161133b565b600280546001600160a01b0319169055610d5381611459565b600080602060008451602086016000885af18061140b576040513d6000823e3d81fd5b50506000513d91508115611423578060011415611430565b6001600160a01b0384163b155b156105d157604051635274afe760e01b81526001600160a01b0385166004820152602401610d9e565b600180546001600160a01b03838116610100818102610100600160a81b031985161790945560405193909204169182907f8be0079c531659141344cd1fd0a4f28419497f9722a3daafe3b4186f6b6457e090600090a35050565b80356001600160a01b03811681146114ca57600080fd5b919050565b600080604083850312156114e257600080fd5b6114eb836114b3565b946020939093013593505050565b8035600381106114ca57600080fd5b6000806040838503121561151b57600080fd5b611524836114b3565b9150611532602084016114f9565b90509250929050565b60006020828403121561154d57600080fd5b611556826114f9565b9392505050565b60006020828403121561156f57600080fd5b611556826114b3565b634e487b7160e01b600052602160045260246000fd5b600381106115ac57634e487b7160e01b600052602160045260246000fd5b9052565b64ffffffffff87811682528616602082015263ffffffff851660408201526001600160601b038416606082015260c081016115ee608083018561158e565b82151560a0830152979650505050505050565b60006020828403121561161357600080fd5b5051919050565b634e487b7160e01b600052601160045260246000fd5b80820281158282048414176116475761164761161a565b92915050565b60008261166a57634e487b7160e01b600052601260045260246000fd5b500490565b818103818111156116475761164761161a565b60ff81811683821601908111156116475761164761161a565b606081016116a9828661158e565b6116b6602083018561158e565b826040830152949350505050565b808201808211156116475761164761161a565b63ffffffff8181168382160190808211156116f4576116f461161a565b5092915050565b6001600160601b038181168382160190808211156116f4576116f461161a56fea264697066735822122035784ade35812739324acd7431d2f001f36c22daa323de7156181226221e3f8d64736f6c63430008140033","linkReferences":{}},"methodIdentifiers":{"DAILY_CLAIM_COOLDOWN()":"a1eda9bf","RESERVE_FUND_PERCENTAGE()":"c0302c9e","acceptOwnership()":"79ba5097","activateEmergencyMode()":"d0096010","createAccount()":"9dca362f","dailyClaim(address)":"6b7e627c","deactivateEmergencyMode()":"99b20eaf","emergencyMode()":"0905f560","enbToken()":"a7de285f","levelConfigs(uint8)":"2935a0cc","owner()":"8da5cb5b","paused()":"5c975abb","pendingOwner()":"e30c3978","recoverERC20(address,uint256)":"8980f11f","renounceOwnership()":"715018a6","transferOwnership(address)":"f2fde38b","trustedRelayer()":"8596c226","updateRelayer(address)":"8f83ab13","updateUpgradeRecipient(address)":"f583f5b1","upgradeMembership(address,uint8)":"15db5d7c","upgradeTokenRecipient()":"c165554c","userAccounts(address)":"5251d91c","withdrawTokens(address,uint256)":"06b091f9"},"id":27}